:10000000A2EF00F017C009F016C008F015C007F005
:1000100014C006F0CFEF00F01C6A1D6A010E1E6EC0
:10002000DA6AD96A216A140E206EEA6A180EE96E3D
:1000300021C0E2FF20C0E1FF1EC01FF0D890E550B4
:10004000EE02F3501C22F4501D221F2EF7D71CC0C5
:10005000DEFF1DC01CF01D6AD8B01D2A202AD8B4AE
:10006000212A1E2A1E500508E0E169EF00F0016A0E
:10007000026A006A036A1A5002E1195018E0100E71
:100080001B6ED89017361836003603361A50035CAC
:1000900002E11950005C07E31950005ED8A0030686
:1000A0001A50035ED880013602361B2EEAD71200A2
:1000B00009C017F008C016F007C015F006C014F00C
:1000C000410E1B6EC60E1A6E4E0E196E6D0E186E18
:1000D000A3D7390E0024066E300E0120076E000EE5
:1000E0000220086E000E0320096E08C000F009C04F
:1000F00001F0026A036A09C016F008C015F009C0D1
:1001000018F008C017F07F0E1A6E1968B0DF00C033
:1001100001F003C002F0D0EF00F0EA6A150EE96EBC
:10012000EF500EE0010E016E006A002EFED7012E88
:10013000FBD74A0E006E002EFED700D0EF2EF2D76E
:10014000FCEF00F0F86AD09E92908980C180C18255
:10015000C184C1960B6A220E0A6E050E236EDA0E5A
:10016000226E256A246A046A056A0D6A080E0E6EFC
:10017000220E0F6E2A0E106E630E116E6B0E126E33
:10018000770E136E000E946E956E946A8B6A956A64
:100190008C6A176A166A156A0F0E146E33D788D7E1
:1001A00002C015F001C014F002C018F001C017F031
:1001B0001A6A060E196E5BDF0050010F0C6E036A9F
:1001C0000C500D0FE96E000E0320EA6EEFCF14F015
:1001D000946A14C08BFF036A0C500D0FE96E000E79
:1001E0000320EA6EEFCF14F0956A14C08CFF020E64
:1001F000146EFA0E156E91D7142EFBD7D0D70300CC
:020000040030CA
:0E00000000210C0E000181000FC00FE00F4028
:00000001FF
;PIC18F452
;CRC=A7A7  CREATED="01-Nis-23 15:40"
