:1000000097EF00F01A6A1B6A010E1C6EDA6AD96A51
:100010001F6A120E1E6EEA6A160EE96E1FC0E2FF1C
:100020001EC0E1FF1CC01DF0D890E550EE02F35059
:100030001A22F4501B221D2EF7D71AC0DEFF1BC058
:100040001AF01B6AD8B01B2A1E2AD8B41F2A1C2AF1
:100050001C500508E0E15FEF00F0016A026A006AE7
:10006000036A185002E1175018E0100E196ED8906C
:1000700015361636003603361850035C02E1175069
:10008000005C07E31750005ED8A003061850035E1B
:10009000D88001360236192EEAD7120009C015F0B1
:1000A00008C014F007C013F006C012F0410E196E1C
:1000B000C60E186E4E0E176E6D0E166EA3D7390E45
:1000C0000024066E300E0120076E000E0220086E1E
:1000D000000E0320096E08C000F009C001F0026A9A
:1000E000036A09C014F008C013F009C016F008C074
:1000F00015F07F0E186E1768B0DF00C001F003C066
:1001000002F01200EA6A130EE96EEF500EE0010EE3
:10011000016E006A002EFED7012EFBD74A0E006E3C
:10012000002EFED700D0EF2EF2D7F2EF00F0F86AE3
:10013000D09E92908980C180C182C184C196046A98
:10014000056A0B6A080E0C6E220E0D6E2A0E0E6EDC
:10015000630E0F6E6B0E106E770E116E000E946EA6
:10016000956E946A8B6A956A8C6A98DF02C013F068
:1001700001C012F002C016F001C015F0186A060E98
:10018000176E6BDF0050010F0A6E036A0A500B0FE7
:10019000E96E000E0320EA6EEFCF12F0946A12C0EF
:1001A0008BFF7CDF02C013F001C012F002C016F01A
:1001B00001C015F0186A060E176E4FDF0050010FD0
:1001C0000A6E036A0A500B0FE96E000E0320EA6EF6
:1001D000EFCF12F0956A12C08CFF040E126EFA0E69
:0C01E000136E90D7122EFBD7C0D703007F
:020000040030CA
:0E00000000210C0E000181000FC00FE00F4028
:00000001FF
;PIC18F452
;CRC=494A  CREATED="25-Nis-23 09:03"
